:10206200AF83E582900001F0EFA3F0900001E0FE63
:10207200A3E0FF7C007D00C3EC9EED9F50147AFB31
:102082007B041ABAFF011BEA4B70F70CBC00E80D87
:1020920080E522E582900003F0C290C29490008D08
:1020A200E0FEA3E0FF900003E0FD7C008E828F83C0
:1020B200EDF0ECA3F022E582900004F0D290C294FD
:1020C20090008DE0FEA3E0FF900004E0FD7C008E16
:1020D200828F83EDF0ECA3F0227582381220959066
:1020E200000A12206275820F12209590000A1220B7
:1020F2006275820112209590000A12206275828018
:1021020012209590000A022062C290D29490008D13
:10211200E0FEA3E0FF8E828F83E0FEA3E0EE20E7E5
:10212200EC22E582900005F012210B900005E0FF01
:1021320090008FF0E4A3F090000574804FF0C290FD
:10214200C29490008DE0FEA3E0FF900005E0FD7CCC
:10215200008E828F83EDF0ECA3F022C290C29475C0
:10216200820112209590008FE4F0A3F075820002A4
:102172002124E582900006F012210B900006E0F582
:10218200821220B890008FE02401F0A3E03400F026
:1021920090008FE0FEA3E0FFBE100EBF000B900088
:1021A2008F7440F0E4A3F0802FBE500EBF000B905E
:1021B200008F7410F0E4A3F0801EBE200EBF000B4F
:1021C20090008F7450F0E4A3F0800DBE600ABF004F
:1021D2000790008FE4F0A3F090008FE0FEA3E08E62
:1021E20082022124AFF0AE83E582900007F0EEA3D5
:1021F200F0EFA3F0900007E0FDA3E0FEA3E0FF8D67
:10220200828E838FF01238EAFC60238C82C007C072
:1022120006C005122174D005D006D0070DBD0001FD
:102222000E900007EDF0EEA3F0EFA3F080D1900046
:1022320007EDF0EEA3F0EFA3F022AFF0AE83E5825C
:1022420090000CF0EEA3F0EFA3F090000AE0F50886
:10225200A3E0F509AC08C40354F8CCC403CC6CCC9D
:1022620054F8CC6CFD8C0374402BF582C005C0047D
:1022720012209512210B90000CE0F9A3E0FAA3E0E2
:10228200FB89828A838BF01238EAF582C003C0028E
:10229200C0011220B812210BD001D002D003D00409
:1022A2008C00744128F582C004C003C002C0011230
:1022B200209512210BD001D002D003740129F8E439
:1022C2003AFE8B0788828E838FF01238EAF582C03D
:1022D20003C002C0011220B812210BD001D002D0DB
:1022E20003D0048C0774422FF582C004C003C002DD
:1022F200C00112209512210BD001D002D00374022A
:1023020029F8E43AFE8B0788828E838FF01238EA2E
:10231200F582C003C002C0011220B812210BD00105
:10232200D002D003D0048C0774432FF582C004C0BE
:1023320003C002C00112209512210BD001D002D09D
:1023420003740329F8E43AFE8B0788828E838FF0A8
:102352001238EAF582C003C002C0011220B812216D
:102362000BD001D002D003D0048C0774442FF58225
:10237200C004C003C002C00112209512210BD0017B
:10238200D002D003740429F8E43AFE8B0788828EC7
:10239200838FF01238EAF582C003C002C001122016
:1023A200B812210BD001D002D003D0048C0774459F
:1023B2002FF582C004C003C002C001122095122171
:1023C2000BD001D002D003740529F8E43AFE8B0742
:1023D20088828E838FF01238EAF582C003C002C071
:1023E200011220B812210BD001D002D003D0048CEC
:1023F2000774462FF582C004C003C002C001122038
:102402009512210BD001D002D003740629F8E43AC8
:10241200FE8B0788828E838FF01238EAF582C00322
:10242200C002C0011220B812210BD001D002D00389
:10243200D004D00574472CF582C003C002C001123B
:10244200209512210BD001D002D003740729F9E4A0
:102452003AFA89828A838BF01238EAF5821220B81E
:1024620012210B75828012209590008FE0FEA3E06E
:102472008E8212212412210BAE088E821220B812F3
:08248200210B900032022062E0
:023A1A0000F0BA
:03200000022006B5
:03205F0002200359
:0320030002248A2A
:10248A00900027E4F0900028F090002904F09000D2
:10249A002A740AF090002B7404F090002C740AF04D
:1024AA0090002D7410F090002EE4F01228BA122039
:1024BA00DB12215D90008FE4F0A3F0900094E0FC21
:1024CA00A3E0FDA3E0FEA3E08C828D838EF0122DA3
:1024DA006FAE82AF83C006C007900091E0C0E0A350
:1024EA00E0C0E0A3E0C0E074FCC0E07439C0E0746E
:1024FA0080C0E07413C0E07400C0E0E4C0E0122DB4
:10250A0013E58124F5F58190001375F0001221E698
:10251A0090000AE4F0A3F090002775F00012223C24
:10252A0012263990009CE0F5F0A3E045F070030212
:10253A0025B512263912215D90008FE4F0A3F090A0
:10254A000094E0FCA3E0FDA3E0FEA3E08C828D836F
:10255A008EF0122D6FAE82AF83C006C00790009135
:10256A00E0C0E0A3E0C0E0A3E0C0E074FCC0E07417
:10257A0039C0E07480C0E07413C0E07400C0E0E4C5
:10258A00C0E0122D13E58124F5F58190001375F052
:10259A00001221E690000AE4F0A3F090002775F0FB
:1025AA000012223C90009CE4F0A3F090008FE4F02B
:1025BA00A3F0C292A2929297D293A293929690007B
:1025CA0011E0FF900012E090004DF08F8212261A5F
:1025DA00C293A2939296D292A292929790000FE0FF
:1025EA00FF900010E090004BF08F821225FB02252D
:0125FA002DB3
:1039FC0025732564004443204D4F544F522050579B
:033A0C004D3A0030
:053A1C000000013A80EA
:1025FB00E58290004CF075892190004BE0F58A90B4
:10260B00004CE0F58CD28C308DFDC28CC28D22E556
:10261B008290004EF075892190004DE0F58A900074
:10262B004EE0F58CD28C308DFDC28CC28D22900089
:10263B0098E0C0E0A3E0C0E0A3E0C0E0A3E0C0E00E
:10264B0090000075F080743F123827AC82AD83AEDA
:10265B00F0FFE58124FCF581C004C005C006C0076E
:10266B0090000075F07A7444122A6CAC82AD83AE84
:10267B00F0FFE58124FCF581900037ECF0EDA3F041
:10268B00EEA3F0EFA3F0C004C005C006C007900096
:10269B000075F07A7444122A6CAC82AD83AEF0FFF5
:1026AB00E58124FCF581E4C0E0C0E07434C0E07443
:1026BB0042C0E08C828D838EF0EF122A61AC82AD2A
:1026CB0083AEF0FFE58124FCF58190003BECF0ED4F
:1026DB00A3F0EEA3F0EFA3F0C007C006C005C00443
:1026EB00E4C0E0C0E074C8C0E07442C0E08C828DEE
:1026FB00838EF0EF123827A882A983AAF0FBE5811D
:10270B0024FCF581900094E0C0E0A3E0C0E0A3E0DE
:10271B00C0E0A3E0C0E0888289838AF0EB122A6CC8
:10272B00A882A983AAF0FBE58124FCF581D004D013
:10273B0005D006D007C003C002C001C000C000C056
:10274B0001C002C0038C828D838EF0EF122A61AC24
:10275B0082AD83AEF0FFE58124FCF581D000D00182
:10276B00D002D003C007C006C005C0047448C0E047
:10277B0074E1C0E0748AC0E0743FC0E08882898352
:10278B008AF0EB123827A882A983AAF0FBE58124F3
:10279B00FCF581D004D005D006D007900033E8F0CB
:1027AB00E9A3F0EAA3F0EBA3F0C003C002C001C0A1
:1027BB00007448C0E074E1C0E0748AC0E0743FC0AC
:1027CB00E08C828D838EF0EF123827AC82AD83AE16
:1027DB00F0FFE58124FCF581D000D001D002D003BD
:1027EB0090002FECF0EDA3F0EEA3F0EFA3F0C007F9
:1027FB00C006C005C004C000C001C002C0039000E9
:10280B000075F0807447122A61A882A983AAF0FB95
:10281B00E58124FCF581888289838AF0EB122DA354
:10282B00AA82AB83D004D005D006D007900043EA30
:10283B00F0EBA3F08A007900900041E8F0E9A3F0F7
:10284B00900010E8F08B027B0090003FEAF0EBA3C6
:10285B00F090000FEAF0C004C005C006C00790005E
:10286B000075F0807447122A61AC82AD83AEF0FF25
:10287B00E58124FCF5818C828D838EF0EF122DA3E4
:10288B00AE82AF83900049EEF0EFA3F08E047D0093
:10289B00900047ECF0EDA3F0900012ECF08F067F68
:0F28AB0000900045EEF0EFA3F0900011EEF02248
:0A3A21000000484200009644000037
:1028BA00758921758DFD75985075A892D28E2290D2
:1028CA00004FE599F0E0F58222C020C0E0C0F0C0D8
:1028DA0082C083C007C006C005C004C003C002C0CE
:1028EA0001C000C0D075D000209803022A441228E3
:1028FA00C9AF82BF2B028003022988900094E0FBB3
:10290A00A3E0FCA3E0FDA3E0FEC006C005C004C02E
:10291A0003E4C0E0C0E074C8C0E07442C0E08B8247
:10292A008C838DF0EE122B70AA82E58124FCF5814E
:10293A00D003D004D005D006EA7003022A44E4C0CA
:10294A00E0C0E07420C0E07441C0E08B828C838DCB
:10295A00F0EE122BA0AB82AC83ADF0FEE58124FC35
:10296A00F581900094EBF0ECA3F0EDA3F0EEA3F068
:10297A0090009C7401F0E4A3F0C298022A44BF2D8F
:10298A000280028079900094E0FBA3E0FCA3E0FDC2
:10299A00A3E0FEC006C005C004C003C003C004C053
:1029AA0005C006900000E4F5F0122B70AA82E581BA
:1029BA0024FCF581D003D004D005D006EA607BE47C
:1029CA00C0E0C0E07420C0E07441C0E08B828C8318
:1029DA008DF0EE122A61AB82AC83ADF0FEE5812464
:1029EA00FCF581900094EBF0ECA3F0EDA3F0EEA3DC
:1029FA00F090009C7401F0E4A3F0C298803CBF30D0
:102A0A001C900094E4F0A3F07448A3F07442A3F07D
:102A1A0090009C7401F0E4A3F0C298801DBF311AA3
:102A2A00900094E4F0A3F07470A3F07442A3F090C1
:102A3A00009C7401F0E4A3F0C298D0D0D000D00179
:102A4A00D002D003D004D005D006D007D083D082DC
:102A5A00D0F0D0E0D02032A8811818C6B2E7C6025A
:102A6A002BA0122B0FBC0003022DCFEF60FA30D53A
:102A7A0002B2D1E583B4FF03022DE5E582B4FF0378
:102A8A00022DE5258340072482400B022DCF2483A3
:102A9A00145003022DE5F582EA8DF0A4A8F0EA8E1F
:102AAA00F0A428F8E435F0F9EB8DF0A428E935F024
:102ABA00F9E433CA8FF0A429F9EA35F0FAEBF88E73
:102ACA00F0A429F9EA35F0FAE433FBEC8DF0A429F5
:102ADA00F9EA35F0FAE43BFBE88FF0A42AFAEB3581
:102AEA00F0FBE433CCFD8EF0A42AFAEB35F0FBE4DC
:102AFA003CFCED8FF0A42BFBEC35F0FC20E7031235
:102B0A002B3D022DAEAA82AB83A2F73392D1F58276
:102B1A006002D2F7ACF0E58124F9F8E6FD08E6FE9A
:102B2A000886F008E6A2F73392D5F5836002D2F759
:032B3A00AFF022D7
:06203500E478FFF6D8FD7F
:102B3D007804EC7011E58224F8500AF582E4C9CAD4
:102B4D00CBFCD8EF22EC7820058220E713D582014B
:102B5D0022C3E933F9EA33FAEB33FBEC33FCD8EA61
:032B6D00158222AC
:102013007911E94400601B7A01903A1A788D75A012
:1020230000E493F2A308B8000205A0D9F4DAF2752C
:02203300A0FF0C
:102B7000FFA8811818122C17D2D133E6400730E78E
:102B80000B7582002220E70675820122C2D1122B2A
:102B9000F9E97003F5822220D101B3E433F58222F2
:102BA000122B0F7900E583B58202800D5003123796
:102BB000D5E583C39582123906E5D0C465D020E1FE
:102BC00017EA2DFAEB3EFBEC3FFC50097401123979
:102BD00006EC4480FC022DAEC3EA9DFAEB9EFBECB2
:102BE0009FFC500FC3E499F9E49AFAE49BFBE49C40
:092BF000FCB2D1122B3D022DAE06
:10203B007800E84400600A790175A000E4F309D840
:10204B00FC788CE84400600C7901900001E4F0A36B
:04205B00D8FCD9FADA
:102BF9007901AA82E68F82B5821318E6B5F00E181C
:102C0900E6B5830918E68A82B58202790022B48082
:102C19000FE5F0700AE5837006E58270027F00EF28
:102C2900B6801518B6001018B6000B18B6000608BD
:102C3900080876002208080822C00A85810AC0828D
:102C4900058105810581E50A24FBF8A90A0909E638
:102C5900F70809E6F70809E6F7A80A0808868208C6
:102C690086830886F01238EAFAA31238EAFBA3121F
:102C790038EAFF74012AFCE43BFD8F06A80A08081C
:102C890086820886830886F0EC1239E1A3ED1239B1
:102C9900E1A3EE1239E18A828B838FF0A80A08E654
:102CA9001239E1850A81D00A22AFF0AE83E582901C
:102CB9000054F0EEA3F0EFA3F0900050E0FDA3E084
:102CC900FEA3E0FF900053E0FC9000687454F07498
:102CD90000A3F0E4A3F090006BEDF0EEA3F0EFA3F6
:102CE900F090006EECF0902C42122ED4AE82AF839D
:102CF900900054E0FBA3E0FCA3E0FD8B828C838D64
:102D0900F0E41239E18E828F8322C00AE581F50A47
:102D190024F8FFE50A24FBFE7D007C40900068EE64
:102D2900F0EDA3F0ECA3F0E50A24F8F890006BE6C7
:102D3900F008E6A3F008E6A3F090006EEFF0902CFF
:102D490042122ED4AE82AF83E50A24FBF88603082B
:102D590086040886058B828C838DF0E41239E18E16
:102D6900828F83D00A22123949700AE58245834548
:102D7900F0700122E430D112F4700BE5F0F4700622
:102D8900E58330E7012290800022700AE5F07006A1
:102D9900E58320E70122907FFF227F8E1239BCF55F
:102DA9008385F08222B98003EA13B34010EA240133
:102DB900FAE43BFBE43CFC50047C800582BC000E39
:102DC900BB000BBA0008E4F5F0F583F58222A2D125
:102DD900E582138CF092F78B838A8222E4F583F5DE
:102DE9008275F080F4A2D11322E4F583F58275F09F
:102DF900C0747F22E582900064F0E0FF90005AE001
:102E0900C0E0A3E0C0E0A3E0C0E0122E18800D905E
:102E19000058E0C0E0A3E0C0E08F8222158115814F
:102E29001581900062E02401F0A3E03400F022E56E
:102E390082900065F0E02430FF24C6500D74072FFE
:102E4900FF900057E060034307208F82022DFDE5C4
:102E590082900066F0E0FFC4540FF582C007122E7D
:102E690038D00753070F8F82022E38E5829000670A
:102E7900F090005DE0FCA3E0FDA3E0FEA3E0FF907D
:102E89000061E0FB751520900067E0F98B00E828E8
:102E9900F8EF23540148FBEC2CFCED33FDEE33FE37
:102EA900EF33FFC3EB994007EBC399FB430401E5FB
:102EB9001514FA8A1570D590005DECF0EDA3F0EECB
:102EC900A3F0EFA3F0900061EBF022AF83E58290CD
:102ED900006FF0EFA3F090006FE0FEA3E0FF900019
:102EE90058EEF0EFA3F0900068E0FDA3E0FEA3E048
:102EF900FF90005AEDF0EEA3F0EFA3F0900062E42A
:102F0900F0A3F090006BE0FDA3E0FEA3E0FF8D824B
:102F19008E838FF01238EAFC90006B74012DF0E477
:102F29003EA3F0EFA3F0EC70030237C9BC25028081
:102F3900030237C1900071E4F0900072F0900073C1
:102F4900F0900074F0900075F0900076F0900077A2
:102F5900F0900078F090007AF090007BF0A3F09068
:102F6900007D14F0A3F090006BE0FDA3E0FEA3E068
:102F7900FF8D828E838FF01238EAFBA3AD82AE8378
:102F890090006BEDF0EEA3F0EFA3F0900081EBF071
:102F9900BB25088B82122DFD022F0CBB300050037C
:102FA90002306DEB24C6500302306D90007DE0F5D0
:102FB9000BA3E0F50C74FFB50B63B50C60C005C03D
:102FC90006C00790007BE0FAA3E0FF90008AEAF0D0
:102FD900EFA3F090000AC005C003123807AE82AF14
:102FE90083D003D0058B027D00EA2EFEED3FFFEE74
:102FF90024D0FEEF34FFFF90007BEEF0EFA3F0D07A
:1030090007D006D00590007BE0F5F0A3E045F0601D
:1030190003022F7A9000727401F0022F7AC005C062
:1030290006C00790008AE50BF0E50CA3F090000AB2
:10303900C006C005C003123807AA82AF83D003D0E7
:1030490005D0067E00EB2AFAEE3FFFEA24D0FAEF1C
:1030590034FFFF90007DEAF0EFA3F0D007D006D04F
:1030690005022F7A900081E0FBBB2E2FC005C00618
:10307900C00790007DE0FAA3E0FFBAFF05BFFF0299
:103089008009D007D006D005022F7AD007D006D004
:103099000590007DE4F0A3F0022F7ABB6100401493
:1030A900EB2485400F90008174DF5BF0900057742A
:1030B90001F08005900057E4F0900081E0FBBB200F
:1030C900028075BB2B028067BB2D028059BB42026F
:1030D900806FBB4302807CBB4403023364BB46035D
:1030E90002338ABB4803022F7ABB4903023364BB0C
:1030F9004A03022F7ABB4C028050BB4F0302337242
:10310900BB50030232D2BB53028077BB5403022F58
:103119007ABB550302337ABB5803023382BB5A0385
:10312900022F7A0233929000717401F0022F7A9083
:1031390000737401F0022F7A9000747401F0022F69
:103149007A9000767401F0022F7A9000777401F07A
:10315900022F7A900076E0600E90006EE014F9F08C
:10316900900081E7F0800F90006EE024FEFFF08F61
:1031790001900081E7F0900081E0F582122DFD02B7
:1031890033A190006EE024FDFFF08F0187050987C8
:1031990006098707191990005DEDF0EEA3F0EFA37A
:1031A900F08D828E838FF01237EF85820B85830C29
:1031B90090007DE0FAA3E0FDBAFF0DBDFF0A900083
:1031C9007DE50BF0E50CA3F0900071E0704B9000E9
:1031D9007BE0FAA3E0FDC3E50B9AE50C9D503A901C
:1031E900007BEAC3950BF0ED950CA3F090007BE012
:1031F900FAA3E0FD8A068D071ABAFF011DEE4F609A
:1032090010758220C005C002122DFDD002D00580A4
:10321900E390007BEAF0EDA3F090007DE0F50EA3CA
:10322900E0F50F90005DE0FAA3E0FDA3E0FF8A82DC
:103239008D838FF01238EAF50D603CC3E4950E7466
:1032490080850FF063F08095F0502C150E74FFB552
:103259000E02150F850D82122DFD90005DE0FAA377
:10326900E0FDA3E0FF0ABA00010D90005DEAF0ED70
:10327900A3F0EFA3F080AC900071E070030233A1DA
:1032890090007BE0FEA3E0FFC3E50B9EE50C9F40A9
:10329900030233A190007BEEC3950BF0EF950CA3CD
:1032A900F090007BE0FEA3E0FF8E028F051EBEFFBB
:1032B900011FEA4D7003023399758220C007C006C9
:1032C900122DFDD006D00780E090006EE024FDFDB0
:1032D900F08D018710098711098712191990005D6E
:1032E900E510F0E511A3F0E512A3F090005FE0FD11
:1032F900BD800040089000817443F08020BD6000CB
:1033090040089000817450F08013BD40004008903F
:1033190000817449F080069000817458F090008112
:10332900E0FDF582C005122DFD75823A122DFD755D
:103339008230122DFD758278122DFDD005BD49020E
:10334900800EBD5002800990005EE0F582122E5871
:1033590090005DE0F582122E58803D900075740151
:10336900F090007A740AF0802F90007A7408F08047
:103379002790007A740AF0801F90007A7410F08008
:10338900179000787401F0800F8B82122DFD800850
:1033990090007BEEF0EFA3F0900078E06071900070
:1033A9006EE024FCFFF08F01870309870509870672
:1033B90009870719191990005DEBF0EDA3F0EEA349
:1033C900F0EFA3F090005D740FF0743AA3F07480ED
:1033D900A3F090005DE0F510A3E0F511A3E0F5126C
:1033E90074012510FAE43511FBAF1290005DEAF083
:1033F900EBA3F0EFA3F08510828511838512F012FB
:1034090038EAFF7003022F0C8F82122DFD80C390C2
:10341900007AE07003022F0C900076E0604790007C
:103429006EE014F9F087077E007D007B0090005D57
:10343900EFF0EEA3F0EDA3F0EBA3F0900075E060E0
:10344900030234E490005DE0FBA3E0A3E0A3E07D88
:10345900007E007F0090005DEBF0EDA3F0EEA3F09D
:10346900EFA3F08076900077E0602890006EE0246A
:10347900FCFFF08F0187030987050987060987077C
:1034890019191990005DEBF0EDA3F0EEA3F0EFA38D
:10349900F0804890006EE024FEFFF08F0187060956
:1034A900870719EF3395E0FDFB90005DEEF0EFA380
:1034B900F0EDA3F0EBA3F0900075E0701E90005DB5
:1034C900E0FBA3E0FDA3E0A3E07E007F0090005DA8
:1034D900EBF0EDA3F0EEA3F0EFA3F0900075E06040
:1034E9004190005DE0FBA3E0FDA3E0FEA3E0FF3017
:1034F900E72B90005DE0FBA3E0FDA3E0FEA3E0FF66
:10350900C3E49BFBE49DFDE49EFEE49FFF90005D08
:10351900EBF0EDA3F0EEA3F0EFA3F08005900075BA
:10352900E4F09000797401F090007AE0F50E7513DB
:1035390087751400E4F50BF50C900061E4F0850E35
:1035490082122E74900079E07026900061E0C4F533
:1035590010851382851483E0FFE5104207851382E5
:10356900851483EFF0151374FFB513021514800C3D
:10357900900061E0FF851382851483F0050BE4B5A3
:103589000B02050C900079E0B40100E433F09000DF
:103599005DE0FAA3E0FBA3E0FEA3E0FFEA4B4E4F98
:1035A9007097900088E513F0E514A3F090007FE58B
:1035B9000BF0E50CA3F090007BE0F5F0A3E045F0FB
:1035C900700990007B7401F0E4A3F0900072E0FFB1
:1035D900E07047900071E07041850B13850C1490E1
:1035E900007BE0FAA3E0FBC007AF130F8F067F0053
:1035F900C3EE9AEF9BD0075019758220C007C0030C
:10360900C002122DFDD002D003D0071ABAFF011B48
:1036190080D590007BEAF0EBA3F0900075E0602084
:1036290075822DC007122DFDD00790007BE024FF85
:10363900FDA3E034FFFE90007BEDF0EEA3F0805691
:1036490090007FE0F5F0A3E045F0604A900073E058
:10365900602075822BC007122DFDD00790007BE0FA
:1036690024FFFDA3E034FFFE90007BEDF0EEA3F014
:103679008024900074E0601E758220C007122DFD21
:10368900D00790007BE024FFFDA3E034FFFE90000B
:103699007BEDF0EEA3F0900071E0704890007FE0C0
:1036A900F513A3E0F51490007BE0FAA3E0FBC00753
:1036B9008A068B071ABAFF011BC3E5139EE5149FFF
:1036C900D0075053EF60067D307E0080047D207E58
:1036D900008D82C007C003C002122DFDD002D003A5
:1036E900D00780CA90007BE0FEA3E0FF90007FE056
:1036F900F513A3E0F514C3E5139EE5149F500F904D
:10370900007BEEC39513F0EF9514A3F080119000A0
:103719007BE4F0A3F0800890007BEAF0EBA3F09043
:103729000088E0FEA3E0FF90007FE0F513A3E0F539
:1037390014AA13AD14151374FFB513021514EA4D29
:103749006045900079E0B40100E433F0900079E03D
:1037590070140EBE00010F8E828F83E0C4540FFDDA
:10376900900061F0800E8E828F83E0FD53050F90EB
:103779000061EDF0900061E0F582C007C006122EED
:1037890038D006D00780AA900071E07003022F0C90
:1037990090007BE0FEA3E0FF8E038F051EBEFF01B4
:1037A9001FEB4D7003022F0C758220C007C0061253
:1037B9002DFDD006D00780E08C82122DFD022F0C42
:0C37C900900062E0FEA3E08E82F58322F7
:0B3A0F003C4E4F20464C4F41543E00FF
:1037D500E582C583F582A2D133A2D592D11392D5C4
:1037E500ECCFFCEBCEFBEACDFA22AA82AB831238F2
:1037F500EA6003A380F8C3E5829AF582E5839BF529
:103805008322AA83AB828BF090008AE0A4F8A9F00A
:103815008AF0E0A429F98BF0A3E0A429F583888236
:103825002222122B0F30D502B2D1BF0009BC0003F2
:10383500022DF2022DE5BC0003022DCFE583B4FF76
:103845000BE582B4FF03022DF2022DCFE582B4FF12
:1038550003022DE5C395835007247F400B022DCF2E
:103865002480145003022DE5F582C3ED9AEE9BEFFB
:103875009C40111582C3EA33F9EB33FAEC33FBE4D0
:1038850033FC8005E4CCCBCAF9C08275F019C3E9D5
:103895009DEA9EEB9FEC9400D5F002802D400EE949
:1038A5009DF9EA9EFAEB9FFBEC9400FCC3B3E83369
:1038B500F8E58233F582E58333F583C3E933F9EA25
:1038C50033FAEB33FBEC33FC80C4B3E4F938FAE4A8
:1038D5003582FBE43583FCD082500405827C80125E
:0538E5002B3D022DC681
:0D2006007581201239A4E5826003022003D9
:1038EA0020F71430F6148883A88220F507E6A88307
:1038FA0075830022E280F7E49322E0226040F825F3
:10390A0082500274FFF582E824F8501ECCCBCAF923
:10391A00E4CC24F85014CBCAF9E4CB24F8500BCAEF
:10392A00F9E4CA24F8500379002224086010F8C385
:10393A00EC13FCEB13FBEA13FAE913F9D8F12212A0
:10394A0039A8C3749E95824039790012390630D15C
:10395A0026E9F42401F582EAF43400F583EBF43421
:10396A0000F5F0ECF43400700AE582458345F07006
:10397A000122E430E70F22EC20E71489828A838B44
:10398A00F02230D10AE4F582F583F5F074802274CE
:10399A00FFF582F583F5F0747F2275820022AA82F0
:1039AA00AB83A2F73392D1F5826002D2F7ACF02250
:1039BA007F9E1239A830D103022DCFC3EF958250D2
:1039CA000974FFF5F0F583F5822279001239068928
:1039DA00828A838BF0EC2220F71130F6138883A8B1
:1039EA008220F509F6A8837583002280FEF280F50D
:0239FA00F022B9
:00000001FF
